S01B000077617463685F73746F7077617463685F7365742E737265630B
S113000045C0000060C000005EC000005CC000008D
S11300105AC0000058C0000056C0000054C0000080
S113002052C0000050C000004EC000004CC0000090
S11300304AC0000048C0000046C0000044C00000A0
S11300409BC0000040C000003EC000003CC0000057
S11300503AC0000038C0000036C0000034C00000C0
S113006032C0000030C000002EC000002CC00000D0
S11300702AC0000028C0000026C0000024C00000E0
S113008022C0000020C000001EC0000011241FBEBA
S1130090CFEFD0E1DEBFCDBF11E0A0E0B1E0E0E002
S11300A0F9E000E00BBF02C007900D92AC30B1073D
S11300B0D9F721E0ACE0B1E001C01D92A831B2074C
S11300C0E1F7D5D31BC49CCF81B38F7081BB089556
S11300D040B350E021E030E0F90102C0EE0FFF1F11
S11300E08A95E2F7CF01842395230097B9F0FB01A9
S11300F0E45FFE4F2081211111C0FFEF2DEE82E05D
S1130100F15020408040E1F700C00000FB01E45FB3
S1130110FE4F81E0808380E090E00895FB01E45F7E
S1130120FE4F2081213091F4892B99F4FB01E45F87
S1130130FE4F10829FEFEDEEF2E09150E040F04070
S1130140E1F700C0000081E090E0089580E090E0D5
S1130150089580E090E008958FEF84BB87B3806FAB
S113016087BB15BA089586E082BF83B7846083BFD6
S113017081E087BF789408951F920F920FB60F9273
S113018011240BB60F928F939F93EF93FF9386E006
S113019082BFE0911601F091170180818F5F808307
S11301A0E0911401F091150180818F5F8083E091CB
S11301B01601F09117018581813029F481819281A2
S11301C0019692838183E0911401F0911501858158
S11301D0813029F481819281019692838183E09117
S11301E01401F09115018581833019F085818230E5
S11301F029F487819085019690878783FF91EF91F9
S11302009F918F910F900BBE0F900FBE0F901F9078
S113021018950F931F93CF93DF93FC012581211130
S11302209DC0FB012581222309F498C0EB018C01B8
S11302302230D1F1233009F46AC0213009F08EC094
S113024081819281883E9340B0F01A8219828B8119
S11302509C8101969C838B839BB382E089278BBB13
S1130260E0911401F09115018381948180319E40C5
S113027011F41482138260E070E084E090E028DFDF
S1130280892B31F01BBA81E0F80185831D8266C099
S113029061E070E085E090E01BDF892B09F45EC02B
S11302A01BBA82E08D835AC087819085883E934033
S11302B058F018861F829E8181E0911180E08E8320
S11302C09BB384E089278BBB60E070E084E090E01E
S11302D0FFDE892B21F01BBA81E08D833FC061E0F2
S11302E070E085E090E0F4DE892B21F01BBA83E016
S11302F08D8334C062E070E086E090E0E9DE892B13
S113030069F18B819C8101969C838B8327C08781B3
S11303109085883E934058F010861782968181E03C
S1130320911180E08E839BB388E089278BBB61E0C9
S113033070E085E090E0CCDE892B21F01BBA82E0EE
S11303408D830CC062E070E086E090E0C1DE892B12
S113035029F08B819C81CC969C838B83DF91CF91F8
S11303601F910F9108950F931F93CF93DF93EC0187
S1130370FB01958191116EC08B018D818130B1F0AB
S113038020F0823009F444C065C01A8219821C82AC
S11303901B828FEF88BB60E070E084E090E098DE21
S11303A0892B09F457C081E08D8354C089819A81D7
S11303B0883E9340B0F01A8219828B819C81019609
S11303C09C838B839BB381E089278BBBE0911601CF
S11303D0F0911701838194818835924011F414823D
S11303E0138260E070E084E090E072DE892B31F0EB
S11303F01BBA1D8281E0F80185832CC061E070E0A6
S113040085E090E065DE892B29F182E08D8322C0AE
S113041060E070E084E090E05BDE892B31F01BBA91
S11304201D8281E0F801858315C061E070E085E0FC
S113043090E04EDE892B19F081E08D830BC062E0E1
S113044070E086E090E044DE892B21F01BBA1D8227
S1130450F8011582DF91CF911F910F9108950F93A9
S11304601F93CF93DF93CDB7DEB72B970FB6F894D6
S1130470DEBF0FBECDBFAC018B01DC0115968C91A4
S1130480882309F4DDC08BE0E0E0F1E0DE011196A1
S113049001900D928A95E1F78091120190911301D8
S11304A082309105E1F11CF4892B49F0BFC08430FE
S11304B0910509F45CC0069709F485C0B7C08FE7BD
S11304C088BBFA0121813281369527953695279587
S11304D0ABE7B4E104D2FC01F695E7959F01ADECDE
S11304E0BCECFDD1969587959695879596958795BD
S11304F09C01220F331F880F991F880F991F880FA3
S1130500991F820F931F9F01281B390BE1E0F0E034
S1130510EC0FFD1FE20FF31F808185BB87C08FEBBB
S113052088BBDA011396ED91FC9114979F01ADEC11
S1130530BCECD5D196958795969587959695879594
S11305409C01220F331F880F991F880F991F880F52
S1130550991F820F931F9F01281B390BE1E0F0E0E4
S1130560EC0FFD1FE20FF31F808185BB5FC08FED91
S113057088BBDA0113962D913C911497ADECBCEC39
S1130580AED1FC01F695E795F695E795F695E795D6
S11305909F01ABEABAEAA3D196958795969587957C
S11305A09C01220F331F820F931F880F991F9F01F5
S11305B0281B390BE1E0F0E0EC0FFD1FE20FF31F05
S11305C0808185BB33C08FEE88BBDA0113962D91F1
S11305D03C911497A9E8B8E882D1FC01F695E79517
S11305E0F295E295EF70EF27FF70EF279F01ADECD6
S11305F0BCEC75D196958795969587959695879534
S11306009C01220F331F880F991F880F991F880F91
S1130610991F820F931F9F01281B390BE1E0F0E023
S1130620EC0FFD1FE20FF31F808185BBDA018C9173
S113063090E08770907890931301809312010CC11D
S1130640FB018581882309F407C18BE0E0E0F1E038
S1130650DE01119601900D928A95E1F780911001C7
S1130660909111018230910509F43EC01CF4892B4C
S113067049F0E9C08430910509F46CC0069709F487
S1130680A7C0E1C08FE788BBDB0116968C91169753
S1130690882331F015968C91823011F48FEF88BB4A
S11306A0F801438154819A01ADECBCEC18D19695C4
S11306B0879596958795969587959C01220F331F6C
S11306C0880F991F880F991F880F991F820F931FF6
S11306D09A01281B390BE1E0F0E0EC0FFD1FE20F5B
S11306E0F31F808185BBAFC08FEB88BBDB011696FF
S11306F08C911697882331F015968C91823011F4E1
S11307008FEF88BBF80123813481ADECBCECE7D0DA
S1130710AC015695479556954795569547959A0138
S1130720ABEABAEADCD096958795969587959C01B5
S1130730220F331F820F931F880F991F9A01281BC2
S1130740390BE1E0F0E0EC0FFD1FE20FF31F8081B5
S113075085BB79C08FED88BBDB0116968C9116970B
S1130760882331F015968C91833011F48FEF88BB78
S1130770F80123813481A9E8B8E8B1D0AC015695D9
S11307804795529542954F7045275F7045279A01CA
S1130790ADECBCECA4D096958795969587959695E7
S11307A087959C01220F331F880F991F880F991F6B
S11307B0880F991F820F931F9A01281B390BE1E0C0
S11307C0F0E0EC0FFD1FE20FF31F808185BB3BC0FF
S11307D08FEE88BBDB0116968C911697882331F037
S11307E015968C91833011F48FEF88BBF801238127
S11307F03481369527953695279536952795AFE418
S1130800BBE16DD0AC0156954795569547955695E5
S113081047959A01ABEABAEA62D096958795969580
S113082087959C01220F331F820F931F880F991FF6
S11308309A01281B390BE1E0F0E0EC0FFD1FE20FF9
S1130840F31F808185BBD8018C9190E087709078EC
S113085090931101809310012B960FB6F894DEBF8C
S11308600FBECDBFDF91CF911F910F910895CF930C
S1130870DF93CDB7DEB72F970FB6F894DEBF0FBE68
S1130880CDBF8FEF8ABB1BBAFE01319686E0DF0134
S11308901D928A95E9F7F0931701E09316013696B5
S11308A089E0DF011D928A95E9F7F0931501E09341
S11308B0140152DC09DC57DCBE01695F7F4FCE01B5
S11308C0019651DDBE01695F7F4FCE010196A1DC27
S11308D0BE01695F7F4FCE010196C1DDEDCFA29FBE
S11308E0B001B39FC001A39F700D811D1124911D00
S11308F0B29F700D811D1124911D0895F894FFCFAE
S10F09003F065B4F666D7D277F6780001B
S9030000FC
