S01B000077617463685F73746F7077617463685F7365742E737265630B
S113000045C0000060C000005EC000005CC000008D
S11300105AC0000058C0000056C0000054C0000080
S113002052C0000050C000004EC000004CC0000090
S11300304AC0000048C0000046C0000044C00000A0
S11300409BC0000040C000003EC000003CC0000057
S11300503AC0000038C0000036C0000034C00000C0
S113006032C0000030C000002EC000002CC00000D0
S11300702AC0000028C0000026C0000024C00000E0
S113008022C0000020C000001EC0000011241FBEBA
S1130090CFEFD0E1DEBFCDBF11E0A0E0B1E0EAECEC
S11300A0F4E000E00BBF02C007900D92AC30B10742
S11300B0D9F721E0ACE0B1E001C01D92A631B2074E
S11300C0E1F7D6D100C29CCF81B38F7081BB089574
S11300D040B350E021E030E0F90102C0EE0FFF1F11
S11300E08A95E2F7CF01842395230097B9F0FB01A9
S11300F0E45FFE4F2081211111C0FFEF2DEE82E05D
S1130100F15020408040E1F700C00000FB01E45FB3
S1130110FE4F81E0808380E090E00895FB01E45F7E
S1130120FE4F2081213091F4892B99F4FB01E45F87
S1130130FE4F10829FEFEDEEF2E09150E040F04070
S1130140E1F700C0000081E090E0089580E090E0D5
S1130150089580E090E008958FEF84BB87B3806FAB
S113016087BB15BA089586E082BF83B7846083BFD6
S113017081E087BF789408951F920F920FB60F9273
S113018011240BB60F928F939F93EF93FF9386E006
S113019082BFE0911401F091150180818F5F80830B
S11301A0E0911401F09115018581813029F4818158
S11301B09281019692838183FF91EF919F918F9118
S11301C00F900BBE0F900FBE0F901F901895CF93FA
S11301D0DF93EC018D818130B1F020F0823009F49D
S11301E03CC04DC01A8219821C821B828FEF88BBCF
S11301F060E070E084E090E06BDF892B09F43FC09D
S113020081E08D833CC089819A81883E934090F03F
S11302101A8219828B819C8101969C838B83E09145
S11302201401F0911501838194818835924011F471
S11302301482138260E070E084E090E049DF892B4F
S113024019F082E08D831BC061E070E085E090E0EE
S11302503FDF892BA1F01D8212C060E070E084E0D2
S113026090E036DF892B19F081E08D8308C061E0CE
S113027070E085E090E02CDF892B09F01D82DF918E
S1130280CF910895CF93DF93CDB7DEB72B970FB6F9
S1130290F894DEBF0FBECDBFAC01DC0115968C9186
S11302A0882309F4DCC08BE0E0E0F1E0DE01119684
S11302B001900D928A95E1F78091100190911101BE
S11302C082309105E1F11CF4892B49F0BFC08430E0
S11302D0910509F45CC0069709F485C0B7C08FE79F
S11302E088BBFA0121813281369527953695279569
S11302F0ABE7B4E1D9D0FC01F695E7959F01ADECED
S1130300BCECD2D0969587959695879596958795CA
S11303109C01220F331F880F991F880F991F880F84
S1130320991F820F931F9F01281B390BE1E0F0E016
S1130330EC0FFD1FE20FF31F808185BB87C08FEB9D
S113034088BBDA011396ED91FC9114979F01ADECF3
S1130350BCECAAD0969587959695879596958795A2
S11303609C01220F331F880F991F880F991F880F34
S1130370991F820F931F9F01281B390BE1E0F0E0C6
S1130380EC0FFD1FE20FF31F808185BB5FC08FED73
S113039088BBDA0113962D913C911497ADECBCEC1B
S11303A083D0FC01F695E795F695E795F695E795E4
S11303B09F01ABEABAEA78D096958795969587958A
S11303C09C01220F331F820F931F880F991F9F01D7
S11303D0281B390BE1E0F0E0EC0FFD1FE20FF31FE7
S11303E0808185BB33C08FEE88BBDA0113962D91D3
S11303F03C911497A9E8B8E857D0FC01F695E79525
S1130400F295E295EF70EF27FF70EF279F01ADECB7
S1130410BCEC4AD096958795969587959695879541
S11304209C01220F331F880F991F880F991F880F73
S1130430991F820F931F9F01281B390BE1E0F0E005
S1130440EC0FFD1FE20FF31F808185BBDA018C9155
S113045090E08770907890931101809310012B960F
S11304600FB6F894DEBF0FBECDBFDF91CF910895D4
S1130470CF93DF9300D000D000D0CDB7DEB7FE011C
S1130480319686E0DF011D928A95E9F7F093150114
S1130490E093140161DE18DE66DECE01019697DE7C
S11304A0CE010196EFDEF9CFA29FB001B39FC00148
S11304B0A39F700D811D1124911DB29F700D811D8C
S10D04C01124911D0895F894FFCF54
S10F04CA3F065B4F666D7D277F67800056
S9030000FC
