:1000000045C0000053C0000051C000004FC00000B8
:100010004DC000004BC0000049C0000047C00000B8
:1000200045C0000043C0000041C000003FC00000C8
:100030003DC000003BC0000039C0000037C00000D8
:1000400060C0000033C0000031C000002FC00000BD
:100050002DC000002BC0000029C0000027C00000F8
:1000600025C0000023C0000021C000001FC0000008
:100070001DC000001BC0000019C0000017C0000018
:1000800015C0000013C0000011C0000011241FBEE5
:10009000CFEFD0E1DEBFCDBF21E0A0E0B1E001C0F5
:1000A0001D92A230B207E1F716D056C0A9CF81B396
:1000B0008F7081BB08958FEF84BB87B3806F87BB40
:1000C00015BA089586E082BF83B7846083BF81E05C
:1000D00087BF78940895CF93DF9300D000D000D0ED
:1000E000CDB7DEB7FE01319686E0DF011D928A951D
:1000F000E9F7F0930101E0930001DDDFD8DFE2DFF3
:10010000FFCF1F920F920FB60F9211240BB60F92D2
:100110008F939F93EF93FF9386E082BFE09100015E
:10012000F091010180818F5F8083E0910001F09167
:1001300001018581813029F4818192810196928328
:100140008183FF91EF919F918F910F900BBE0F9044
:0C0150000FBE0F901F901895F894FFCF81
:00000001FF
