S01B000077617463685F73746F7077617463685F7365742E737265630B
S113000045C0000060C000005EC000005CC000008D
S11300105AC0000058C0000056C0000054C0000080
S113002052C0000050C000004EC000004CC0000090
S11300304AC0000048C0000046C0000044C00000A0
S11300409BC0000040C000003EC000003CC0000057
S11300503AC0000038C0000036C0000034C00000C0
S113006032C0000030C000002EC000002CC00000D0
S11300702AC0000028C0000026C0000024C00000E0
S113008022C0000020C000001EC0000011241FBEBA
S1130090CFEFD0E1DEBFCDBF11E0A0E0B1E0E6EBF1
S11300A0F7E000E00BBF02C007900D92AC30B1073F
S11300B0D9F721E0ACE0B1E001C01D92A831B2074C
S11300C0E1F733D376C39CCF81B38F7081BB08959E
S11300D040B350E021E030E0F90102C0EE0FFF1F11
S11300E08A95E2F7CF01842395230097B9F0FB01A9
S11300F0E45FFE4F2081211111C0FFEF2DEE82E05D
S1130100F15020408040E1F700C00000FB01E45FB3
S1130110FE4F81E0808380E090E00895FB01E45F7E
S1130120FE4F2081213091F4892B99F4FB01E45F87
S1130130FE4F10829FEFEDEEF2E09150E040F04070
S1130140E1F700C0000081E090E0089580E090E0D5
S1130150089580E090E008958FEF84BB87B3806FAB
S113016087BB15BA089586E082BF83B7846083BFD6
S113017081E087BF789408951F920F920FB60F9273
S113018011240BB60F928F939F93EF93FF9386E006
S113019082BFE0911601F091170180818F5F808307
S11301A0E0911401F091150180818F5F8083E091CB
S11301B01601F09117018581813029F481819281A2
S11301C0019692838183E0911401F0911501858158
S11301D0813029F481819281019692838183FF91F8
S11301E0EF919F918F910F900BBE0F900FBE0F90C8
S11301F01F9018950F931F93CF93DF93FC012581D4
S1130200211136C0FB012581222391F1213081F592
S113021021813281283E3340A0F0FB0112821182F9
S1130220238134812F5F3F4F34832383E091140172
S1130230F0911501238134812835324011F4148260
S11302401382EB018C0160E070E084E090E040DF19
S1130250892B29F081E0F80185831D8209C061E0C2
S113026070E085E090E034DF892B11F082E08D832B
S1130270DF91CF911F910F9108950F931F93CF9307
S1130280DF93EC01FB019581911167C08B018D8196
S11302908130B1F020F0823009F43FC05EC01A8290
S11302A019821C821B828FEF88BB60E070E084E0BF
S11302B090E00EDF892B09F450C081E08D834DC09E
S11302C089819A81883E934090F01A8219828B81A9
S11302D09C8101969C838B83E0911601F091170118
S11302E0838194818835924011F41482138260E0F2
S11302F070E084E090E0ECDE892B29F01D8281E03F
S1130300F80185832AC061E070E085E090E0E0DEDA
S1130310892B19F182E08D8320C060E070E084E0D5
S113032090E0D6DE892B29F01D8281E0F8018583D7
S113033014C061E070E085E090E0CADE892B19F01A
S113034081E08D830AC062E070E086E090E0C0DE68
S1130350892B19F01D82F8011582DF91CF911F912D
S11303600F9108950F931F93CF93DF93CDB7DEB70B
S11303702B970FB6F894DEBF0FBECDBFAC018B0137
S1130380DC0115968C91882309F4DDC08BE0E0E054
S1130390F1E0DE01119601900D928A95E1F78091CA
S11303A012019091130182309105E1F11CF4892B23
S11303B049F0BFC08430910509F45CC0069709F484
S11303C085C0B7C08FE788BBFA0121813281369599
S11303D0279536952795ABE7B4E1DCD1FC01F6957A
S11303E0E7959F01ADECBCECD5D196958795969594
S11303F08795969587959C01220F331F880F991F27
S1130400880F991F880F991F820F931F9F01281B24
S1130410390BE1E0F0E0EC0FFD1FE20FF31F8081E8
S113042085BB87C08FEB88BBDA011396ED91FC91F5
S113043014979F01ADECBCECADD19695879596953C
S11304408795969587959C01220F331F880F991FD6
S1130450880F991F880F991F820F931F9F01281BD4
S1130460390BE1E0F0E0EC0FFD1FE20FF31F808198
S113047085BB5FC08FED88BBDA0113962D913C914B
S11304801497ADECBCEC86D1FC01F695E795F69596
S1130490E795F695E7959F01ABEABAEA7BD1969585
S11304A08795969587959C01220F331F820F931F82
S11304B0880F991F9F01281B390BE1E0F0E0EC0F36
S11304C0FD1FE20FF31F808185BB33C08FEE88BB15
S11304D0DA0113962D913C911497A9E8B8E85AD102
S11304E0FC01F695E795F295E295EF70EF27FF7022
S11304F0EF279F01ADECBCEC4DD196958795969571
S11305008795969587959C01220F331F880F991F15
S1130510880F991F880F991F820F931F9F01281B13
S1130520390BE1E0F0E0EC0FFD1FE20FF31F8081D7
S113053085BBDA018C9190E08770907890931301D9
S113054080931201E7C0FB018581882309F4E2C08E
S11305508BE0E0E0F1E0DE01119601900D928A95C6
S1130560E1F7809110019091110182309105A9F178
S11305701CF4892B49F0C5C08430910509F45AC094
S1130580069709F48CC0BDC08FE788BBDB011396C6
S11305904D915C9114979A01ADECBCECFBD096950F
S11305A0879596958795969587959C01220F331F7D
S11305B0880F991F880F991F880F991F820F931F07
S11305C0FA01E81BF90BCF01E1E0F0E0EC0FFD1FAD
S11305D0E80FF91F808185BB94C08FEB88BBDB01DA
S11305E013962D913C911497ADECBCECD3D0AC0197
S11305F05695479556954795569547959A01ABEA72
S1130600BAEAC8D096958795969587959C01220F4E
S1130610331F820F931F880F991FFA01E81BF90BF0
S1130620CF01E1E0F0E0EC0FFD1FE80FF91F80813E
S113063085BB67C08FED88BBDB0113962D913C9180
S11306401497A9E8B8E8A6D0AC01569547955295F9
S113065042954F7045275F7045279A01ADECBCEC7D
S113066099D09695879596958795969587959C01AB
S1130670220F331F880F991F880F991F880F991F06
S1130680820F931FFA01E81BF90BCF01E1E0F0E0C0
S1130690EC0FFD1FE80FF91F808185BB32C08FEE80
S11306A088BBDB0113962D913C91149736952795C1
S11306B03695279536952795AFE4BBE16BD0AC0111
S11306C05695479556954795569547959A01ABEAA1
S11306D0BAEA60D096958795969587959C01220FE6
S11306E0331F820F931F880F991FFA01E81BF90B20
S11306F0CF01E1E0F0E0EC0FFD1FE80FF91F80816E
S113070085BBD8018C9190E087709078909311010B
S1130710809310012B960FB6F894DEBF0FBECDBFA9
S1130720DF91CF911F910F910895CF93DF93CDB7B0
S1130730DEB72C970FB6F894DEBF0FBECDBF86E0B0
S1130740FE013196DF01982F1D929A95E9F7F093F7
S11307501701E09316013696DF011D928A95E9F799
S1130760F0931501E0931401F7DCAEDCFCDCBE0170
S1130770695F7F4FCE01019680DDBE01695F7F4FC7
S1130780CE01019637DDBE01695F7F4FCE01019630
S1130790E9DDEDCFA29FB001B39FC001A39F700D0F
S11307A0811D1124911DB29F700D811D1124911D75
S10907B00895F894FFCF48
S10F07B63F065B4F666D7D277F67800067
S9030000FC
